:100000000C9463000C948B000C948B000C949A0558
:100010000C949A050C949A050C948B000C948B000C
:100020000C948B000C948B000C948B000C948B0024
:100030000C948B000C948B000C948B000C948B0014
:100040000C9450050C948B000C941E050C94F80431
:100050000C948B000C948B000C948B000C948B00F4
:100060000C948B000C948B000000000024002700EF
:100070002A0000000008000201000003040700003D
:1000800000000000000000000000230026002900FE
:1000900000000000250028002B00040404040404D0
:1000A0000404020202020202030303030303010227
:1000B00004081020408001020408102001020408F6
:1000C00010201206D70911241FBECFEFD8E0DEBFE3
:1000D000CDBF22E0AAE6B1E001C01D92A33AB2076B
:1000E000E1F711E0A0E0B1E0E0EAF8E102C005903C
:1000F0000D92AA36B107D9F710E0C2E6D0E004C0ED
:100100002197FE010E94420AC136D107C9F70E9419
:1001100004070C94430C0C9400000895AF92BF9216
:10012000CF92DF92EF92FF920F931F93CF93DF93C3
:100130006C017B018B01040F151FEB015E01AE18F2
:10014000BF08C017D10759F06991D601ED91FC9114
:100150000190F081E02DC6010995892B79F7C50141
:10016000DF91CF911F910F91FF90EF90DF90CF9093
:10017000BF90AF900895FC01538D448D252F30E042
:10018000842F90E0821B930B541710F0CF960895A4
:1001900001970895FC01918D828D981761F0A28DD1
:1001A000AE0FBF2FB11D5D968C91928D9F5F9F7397
:1001B000928F90E008958FEF9FEF0895FC01918D4D
:1001C000828D981731F0828DE80FF11D858D90E0BA
:1001D00008958FEF9FEF0895FC01918D228D892F57
:1001E00090E0805C9F4F821B91098F73992708953F
:1001F00089EB91E00E94EC0021E0892B09F420E0DA
:10020000822F089580E090E0892B29F00E94F80069
:1002100081110C9400000895FC01A48DA80FB92F42
:10022000B11DA35ABF4F2C91848D90E001968F731E
:100230009927848FA689B7892C93A089B1898C913D
:10024000837080648C93938D848D981306C002888C
:10025000F389E02D80818F7D80830895EF92FF9256
:100260000F931F93CF93DF93EC0181E0888F9B8DD9
:100270008C8D98131AC0E889F989808185FF15C093
:100280009FB7F894EE89FF896083E889F9898081B6
:100290008370806480839FBF81E090E0DF91CF9185
:1002A0001F910F91FF90EF900895F62E0B8D10E0A7
:1002B0000F5F1F4F0F731127E02E8C8D8E110CC016
:1002C0000FB607FCFACFE889F989808185FFF5CF61
:1002D000CE010E940C01F1CFEB8DEC0FFD2FF11D33
:1002E000E35AFF4FF0829FB7F8940B8FEA89FB899E
:1002F00080818062CFCFCF93DF93EC01888D8823FC
:10030000B9F0AA89BB89E889F9898C9185FD03C078
:10031000808186FD0DC00FB607FCF7CF8C9185FF5D
:10032000F2CF808185FFEDCFCE010E940C01E9CF95
:10033000DF91CF91089590E0FC01EE58FF4F24919A
:10034000FC01E255FF4F3491FC01E656FF4FE4916A
:10035000EE23C9F0222339F0233001F1A8F4213033
:1003600019F1223029F1F0E0EE0FFF1FE057FF4FA7
:10037000A591B4918FB7F894EC91611126C0309596
:100380003E233C938FBF08952730A9F02830C9F051
:10039000243049F7809180008F7D03C080918000D8
:1003A0008F7780938000DFCF84B58F7784BDDBCFDC
:1003B00084B58F7DFBCF8091B0008F778093B000A4
:1003C000D2CF8091B0008F7DF9CF3E2BDACFCF9383
:1003D000DF9390E0FC01E255FF4F249186569F4F3A
:1003E000FC0184918823D1F090E0880F991FFC01D3
:1003F000E859FF4FA591B491FC01E057FF4FC5911B
:10040000D49161110EC09FB7F8948C91E22FE095C2
:100410008E238C932881E223E8839FBFDF91CF91C5
:1004200008958FB7F894EC91E22BEC938FBFF6CF41
:100430003FB7F8948091AB019091AC01A091AD01D0
:10044000B091AE0126B5A89B05C02F3F19F00196CB
:10045000A11DB11D3FBFBA2FA92F982F8827BC011E
:10046000CD01620F711D811D911D42E0660F771F46
:10047000881F991F4A95D1F708952091B1013091B5
:10048000B2012817390771F49091AF018091B00142
:10049000981741F0E091AF01F0E0E659FE4F8081FE
:1004A00090E008958FEF9FEF08950895EF92FF92E7
:1004B0000F931F93CF93DF93DC015C96ED90FC903C
:1004C0005D97E114F10479F481E090E013969C9338
:1004D0008E93129790E080E0DF91CF911F910F9162
:1004E000FF90EF9008955196ED91FC9152975096A0
:1004F0008C915097982F90950FB75E962C915E97A0
:10050000122F127021FD6095F8942081112319F1AA
:10051000282B2083E7012197F1F728E0462F50E0B0
:10052000308160FF1AC0382B3083E7012197F1F743
:10053000BA0175956795215089F7112381F0808163
:10054000892380830FBF5C968D919C910197F1F771
:1005500081E090E0C1CF2923DCCF3923E5CF908122
:10056000892BEFCF2091B1013091B20128173907C3
:1005700061F48091B0012091AF0190E0805C9F4FC9
:10058000821B91098F739927089590E080E0089568
:100590002091B1013091B20128173907B9F4909137
:1005A000AF018091B001981789F0E091AF01F0E0C0
:1005B000E659FE4F80812091AF0130E02F5F3F4F21
:1005C0002F7333272093AF0190E008958FEF9FEFB3
:1005D00008952FB7F8948091B5019091B601A0913C
:1005E000B701B091B8012FBF809370029093710250
:1005F000A0937202B093730288E692E00E94C80250
:1006000097FF26C02FB7F8948091B5019091B6015D
:10061000A091B701B091B8012FBF409170025091E5
:1006200071026091720270917302841B950BA60B8C
:10063000B70B40916C0250916D0260916E02709107
:100640006F0284179507A607B707B0F28FEF9FEFE9
:10065000089590E080E00895CF93DF93EC0160E08F
:100660008E810E949B0161E08E810E949B0160E06F
:100670008E810E949B018BE891E00197F1F7DF9159
:10068000CF910895CF92DF92EF92FF920F931F9335
:10069000CF93DF936C017C0187E0E80EF11CD0E082
:1006A000C0E0062F10E0B8010C2E02C075956795CA
:1006B0000A94E2F76170F70181917F010E949B012A
:1006C0002196C430D10579F7C601DF91CF911F91F2
:1006D0000F91FF90EF90DF90CF900C942C03CF926E
:1006E000DF92EF92FF920F931F93CF93DF93EC0172
:1006F000F62E642F8C810E949B018D818F3F19F013
:1007000060E00E949B010F2D10E08F8584FF25C0C3
:100710006E0187E0C80ED11CF12CE12CB8010E2C23
:1007200002C0759567950A94E2F76170F6018191B0
:100730006F010E949B01FFEFEF1AFF0A88E0E816A5
:10074000F10461F7CE01DF91CF911F910F91FF90DE
:10075000EF90DF90CF900C942C03B80184E0759556
:1007600067958A95E1F7CE010E9442036F2DCE0175
:10077000DF91CF911F910F91FF90EF90DF90CF907D
:100780000C94420340E0682F87E892E00C946F03DA
:1007900081E00E94C2038BE39FE10197F1F7089586
:1007A000CF93DF93823029F49091960298609093D2
:1007B000960280939A0210929B0280E480939C029E
:1007C00080E180939D0280E580939E0261E08091AC
:1007D0008B020E94E70180918C028F3F19F061E04B
:1007E0000E94E70161E080918D020E94E701C7E865
:1007F000D2E09E01275832408091960284FD0BC0C2
:1008000084E090E021962817390744F461E08E8156
:100810000E94E701EECF88E090E0F4CF8BE39DE00B
:100820000197F1F760E080918B020E949B0160E0EC
:1008300080918D020E949B0180918C028F3F19F064
:1008400060E00E949B018091960284FD34C063E0C9
:1008500087E892E00E944203CBE4D6E4CE01019700
:10086000F1F763E087E892E00E9442032197F1F7F5
:1008700063E087E892E00E94420383E592E00197FB
:10088000F1F762E087E892E00E94420380919602CD
:1008900080620E94C20384E0809397028CE00E94F1
:1008A000C2030E94C80382E08093980286E0DF9131
:1008B000CF910C94C20380620E94C2038BE496E441
:1008C0000197F1F78091960280620E94C20383E54E
:1008D00092E00197F1F78091960280620E94C20334
:1008E000D5CF41E00E946F0381E090E00895FC01C4
:1008F00001900020E9F73197AF01481B590BBC016B
:1009000087E892E00C948E00CF93DF93EC0188810E
:100910009981009711F00E94E40A198218821D82C1
:100920001C821B821A82DF91CF910895FC01808185
:100930009181009711F00C94E40A08950F931F938E
:10094000CF93DF93EC0188819981009759F02A8138
:100950003B812617370730F081E0DF91CF911F915F
:100960000F9108958B016F5F7F4F0E946D0B009771
:1009700059F0998388831B830A832C813D81232B23
:1009800059F7FC011082E8CF80E0E7CFEF92FF92A9
:100990000F931F93CF93DF93EC017B018A01BA0180
:1009A0000E949E0481110BC0CE010E948404CE01DE
:1009B000DF91CF911F910F91FF90EF9008951D83CC
:1009C0000C83B701888199810E943C0CF0CFFC0117
:1009D000118210821382128215821482FB0101900F
:1009E0000020E9F73197AF01461B570B0C94C60462
:1009F0001F920F920FB60F9211242F933F934F9394
:100A00005F936F937F938F939F93AF93BF93EF9376
:100A1000FF9389EB91E00E940C01FF91EF91BF9150
:100A2000AF919F918F917F916F915F914F913F9186
:100A30002F910F900FBE0F901F9018951F920F923D
:100A40000FB60F9211242F938F939F93EF93FF93E1
:100A5000E091C901F091CA018081E091CF01F0914C
:100A6000D00182FD1BC090818091D2018F5F8F7376
:100A70002091D301821741F0E091D201F0E0E754D8
:100A8000FE4F958F8093D201FF91EF919F918F91AF
:100A90002F910F900FBE0F901F9018958081F4CF6B
:100AA0001F920F920FB60F9211242F933F938F93A3
:100AB0009F93AF93BF938091B5019091B601A091A0
:100AC000B701B091B8013091AA0123E0230F2D376F
:100AD00058F50196A11DB11D2093AA018093B5017F
:100AE0009093B601A093B701B093B8018091AB0188
:100AF0009091AC01A091AD01B091AE010196A11D04
:100B0000B11D8093AB019093AC01A093AD01B09364
:100B1000AE01BF91AF919F918F913F912F910F9017
:100B20000FBE0F901F90189526E8230F0296A11D67
:100B3000B11DD2CF1F920F920FB60F9211242F9397
:100B40003F934F935F936F937F938F939F93AF9355
:100B5000BF93EF93FF93E091B101F091B201309711
:100B600049F0A685B7858585968D91FF14C09C9127
:100B70008923A1F4FF91EF91BF91AF919F918F9144
:100B80007F916F915F914F913F912F910F900FBE89
:100B90000F901F9018959C91892361F7A389B489C0
:100BA0009C918589809589238C9386899789019763
:100BB000F1F7608D718DA685B785558538E020E009
:100BC000CB010197F1F7822F90E095958795282F1B
:100BD0004C91452309F02068315091F7868D81FDB5
:100BE00020958091B00190E001968F739927309104
:100BF000AF01381799F0A091B001B0E0A659BE4FEF
:100C00002C938093B001828D938D0197F1F7A38986
:100C1000B4898C919589892B8C93ACCF868D81601A
:100C2000868FF1CFCF92DF92EF92FF921092BC01AC
:100C30001092BB0198EEC92E93E0D92EE12CF12C35
:100C4000C092BD01D092BE01E092BF01F092C001FE
:100C50008AE091E09093BA018093B90185EC90E02D
:100C60009093C6018093C50184EC90E09093C801F5
:100C70008093C70180EC90E09093CA018093C901F2
:100C800081EC90E09093CC018093CB0182EC90E0DA
:100C90009093CE018093CD0186EC90E09093D001AB
:100CA0008093CF011092D2011092D3011092D401FF
:100CB0001092D50110928A02109289028EE291E080
:100CC000909388028093870284E080938B028FEF59
:100CD00080938C0285E080938D0286E080938E0263
:100CE00087E080938F0288E08093900289E0809370
:100CF000910210929202109293021092940210921A
:100D000095021092960281E00E94D00310926B022D
:100D100010926A02C0926C02D0926D02E0926E0252
:100D2000F0926F028CE191E09093690280936802E7
:100D300010927F0210927E02109281021092800225
:100D40001092830210928202109285021092840205
:100D5000609186026E7F6D7F6093860266956170FA
:100D600081E0682783E00E949B0161E083E00E94AC
:100D7000E701E1EBF0E0E491E0937802EDE9F0E0E7
:100D8000E491F0E0EE0FFF1FE057FF4F8591949143
:100D900090937A028093790260E082E00E94E701FA
:100DA0008091860281FD04C061E082E00E949B0187
:100DB00082E080937402E0EBF0E0E491E09375024E
:100DC000ECE9F0E0E491F0E0EE0FFF1FEA57FF4F8F
:100DD00085919491909377028093760266E371E017
:100DE00082E692E00E94E70469E671E08CE592E019
:100DF0000E94E70466E371E086E592E0FF90EF90E1
:100E0000DF90CF900C94E704CF93DF93CDB7DEB79C
:100E100028970FB6F894DEBF0FBECDBF789484B587
:100E2000826084BD84B5816084BD85B5826085BDE6
:100E300085B5816085BD80916E00816080936E0074
:100E40001092810080918100826080938100809166
:100E50008100816080938100809180008160809317
:100E600080008091B10084608093B1008091B000D7
:100E700081608093B00080917A00846080937A00D2
:100E800080917A00826080937A0080917A008160FC
:100E900080937A0080917A00806880937A00109223
:100EA000C10082E00E94D00310928302109282025D
:100EB000109281021092800210927F0210927E02A4
:100EC0008DE991E090938502809384029091740261
:100ED000963108F047C02DEB30E030937F0220932D
:100EE0007E022BE931E030938102209380022CE2D4
:100EF00031E030938302209382022091680084E0E5
:100F0000983048F031E09E3008F430E081E001C0D4
:100F1000880F3A95EAF7822B809368002DE630E03F
:100F2000983050F02BE630E09E3030F02CE630E088
:100F3000963110F030E020E030937C0220937B0269
:100F4000292F30E0983008F0EFC081E001C0880F11
:100F50009A95EAF780937D028091840290918502B0
:100F60000197F1F78091820290918302892B49F1D8
:100F7000E091B101F091B20122E0E836F20709F107
:100F8000309739F0A389B4899C918589809589230C
:100F90008C93809186028E7F809386021092B0019E
:100FA0001092AF0188E692E09093B2018093B10174
:100FB000E0917B02F0917C02808190917D02892BEF
:100FC0008083E091C901F091CA0182E08083E091C1
:100FD000C501F091C6011082E091C701F091C801EE
:100FE0008FEC80831092D101E091CD01F091CE0180
:100FF00086E08083E091CB01F091CC01808180611B
:101000008083E091CB01F091CC0180818860808366
:10101000E091CB01F091CC01808180688083E091E8
:10102000CB01F091CC0180818F7D8083E1E08091C4
:101030009A028111E0E0E195F0E0E957FD4F8489E3
:1010400080680E94C2038EE391E00E947704E091E1
:101050009A02E23008F075C0E150F0E0E957FD4F28
:10106000848980680E94C2038EE491E00E94770424
:101070000E9418024B015C0198EBC92E9BE0D92E0F
:10108000E12CF12C0E941802681979098A099B0940
:10109000683E734081059105A8F381E0C81AD10824
:1010A000E108F108E8EE8E0EE3E09E1EA11CB11CE3
:1010B000C114D104E104F10429F70E94C8038EE5AC
:1010C00091E00E94770480E0A82E80E0B82E1A827A
:1010D00019821C821B821E821D8250E040E069E65C
:1010E00071E0CE0101960E94C6040E94E90297FDBC
:1010F0002AC08F8318860D811E810F5F1F4FB80194
:10110000CE0101960E949E04882379F329813A81B9
:101110008D819E81BE01695F7F4F820F931F0E9468
:101120003C0C1E830D83E1CF9E3040F428503109E2
:1011300081E001C0880F2A95EAF70CCF2E503109C3
:10114000F7CFE1E08ACF809162029091630200972D
:1011500009F468C069817A816115710509F460C07C
:1011600040916402509165022D813E8142175307E0
:1011700008F456C00E943C0C8D819E8190936702BA
:10118000809366021E821D82CE0101960E94960403
:10119000C0906202D0906302C114D10449F0009162
:1011A00066021091670276010115110509F052C01F
:1011B00040916602509167026091620270916302F1
:1011C00089EB91E00E948E0042E050E067E671E01A
:1011D00089EB91E00E948E00E0906602F090670239
:1011E000809160029091610200916202109163020D
:1011F000E816F90609F08BC060915C0270915D02FF
:101200000115110509F475C06115710509F05EC07D
:10121000E114F10409F484C0F801808190E075C004
:101220000E94E40A89819A8190936302809362020A
:101230008B819C8190936502809364028D819E8155
:1012400090936702809366021A8219821C821B8225
:1012500099CF740147012FEF821A920AF70180811A
:10126000082E000C990B0E94FF09892B91F7015061
:1012700011090C0D1D1DF8018081082E000C990B21
:101280000E94FF09892B31F00E151F0518F001503F
:101290001109F1CFA8014F5F5F4F4E195F095093BD
:1012A000670240936602CE14DF0420F4B701C60142
:1012B0000E942A0CE0916202F09163028091660222
:1012C00090916702E80FF91F108272CFC8010E9447
:1012D000330C1BC086E592E00E94840421C010926A
:1012E000B4011092B30147C082E692E00E948404E8
:1012F00052C061157105A1F0E114F10489F0FB0100
:10130000808190E0919581959109892B49F0011593
:10131000110501F3A701B80186E592E00E94C60419
:101320000E94C803E1E080919A028111E0E0E1951A
:10133000F0E0E957FD4F84899091B301890F8068EF
:101340000E94C20340915A0250915B026091560282
:101350007091570287E892E00E948E008091B3015D
:101360009091B40101968F3091050CF0B8CF909315
:10137000B4018093B30160915C0270915D026115CC
:10138000710509F4B1CF409160025091610282E68B
:1013900092E00E94C604A114B10409F498CE0E9400
:1013A000F800882309F493CE0E94000090CE86E5D1
:1013B00092E00E9496048CE592E00E94960482E6F8
:1013C00092E00E9496048CE191E0909369028093F0
:1013D00068028091B1019091B2018856924071F4F7
:1013E000E0917B02F0917C02908180917D0280955A
:1013F000892380831092B2011092B1010895911156
:101400000C94080A803219F089508550C8F7089565
:101410009927882708952F923F924F925F926F925B
:101420007F928F929F92AF92BF92CF92DF92EF9274
:10143000FF920F931F93CF93DF93CDB7DEB7CA1BF5
:10144000DB0B0FB6F894DEBF0FBECDBF09942A8820
:10145000398848885F846E847D848C849B84AA84C8
:10146000B984C884DF80EE80FD800C811B81AA8155
:10147000B981CE0FD11D0FB6F894DEBF0FBECDBF20
:10148000ED010895EE0FFF1F0590F491E02D0994F2
:101490000F931F93CF93DF938230910510F482E076
:1014A00090E0E091A102F091A20230E020E0B0E0F3
:1014B000A0E0309799F42115310509F44AC0281BA2
:1014C000390B24303105D8F58A819B81611571056E
:1014D00089F1FB0193838283FE0111C04081518118
:1014E0000281138148175907E0F04817590799F40A
:1014F000109761F012960C93129713961C933296E4
:10150000CF01DF91CF911F910F9108950093A10218
:101510001093A202F4CF2115310551F04217530761
:1015200038F0A901DB019A01BD01DF01F801C1CF4B
:10153000EF01F9CF9093A2028093A102CDCFFE01DB
:10154000E20FF31F8193919322503109398328834D
:10155000D7CF20919F023091A002232B41F42091FC
:101560000201309103013093A00220939F02209149
:101570000001309101012115310541F42DB73EB72D
:101580004091040150910501241B350BE0919F020D
:10159000F091A002E217F307A0F42E1B3F0B2817CF
:1015A000390778F0AC014E5F5F4F2417350748F0DC
:1015B0004E0F5F1F5093A00240939F02819391931F
:1015C0009FCFF0E0E0E09CCFCF93DF930097E9F06E
:1015D000FC01329713821282A091A102B091A20263
:1015E000ED0130E020E01097A1F420813181820FDD
:1015F000931F20919F023091A0022817390709F00C
:1016000061C0F093A002E0939F02DF91CF91089513
:10161000EA01CE17DF07E8F54A815B819E0141159B
:101620005105B1F7E901FB83EA8349915991C40F50
:10163000D51FEC17FD0761F4808191810296840F1C
:10164000951FE90199838883828193819B838A8393
:10165000F0E0E0E012968D919C9113970097B9F518
:101660002D913C911197CD010296820F931F2091ED
:101670009F023091A0022817390739F6309751F5AB
:101680001092A2021092A102B093A002A0939F0216
:10169000BCCFD383C28340815181840F951FC8176B
:1016A000D90761F44E5F5F4F88819981480F591FB8
:1016B000518340838A819B819383828321153105E5
:1016C00009F0B0CFF093A202E093A1029ECFFD01FA
:1016D000DC01C0CF13821282D7CFB0E0A0E0E3E7F5
:1016E000FBE00C940D0A8C01009751F4CB010E9491
:1016F000480A8C01C801CDB7DEB7E0E10C94290A95
:10170000FC01E60FF71F9C0122503109E217F30795
:1017100008F49DC0D901CD91DC911197C617D70768
:1017200098F0C530D10530F3CE010497861797079E
:1017300008F3C61BD70B2297C193D1936D937C936B
:10174000CF010E94E40AD6CF5B01AC1ABD0A4C015E
:101750008C0E9D1EA091A102B091A202512C412C91
:10176000F12CE12C109731F580919F029091A0020D
:101770008815990509F05CC04616570608F058C050
:101780008091000190910101009741F48DB79EB7BF
:101790004091040150910501841B950BE817F9074E
:1017A00008F055C0F093A002E0939F02F901718305
:1017B0006083A0CF8D919C91119712966C90129797
:1017C00013967C901397A815B90559F56C0142E062
:1017D000C40ED11CCA14DB0420F1AC014A195B0908
:1017E000DA011296159780F06282738251834083EA
:1017F000D9016D937C93E114F10471F0D701139634
:10180000FC93EE93129776CF22968C0F9D1FF901D1
:1018100091838083F301EFCFF093A202E093A102C2
:1018200069CF4816590608F42C017D01D3019ACFDF
:10183000CB010E94480A7C01009749F0AE01B80133
:101840000E942A0CC8010E94E40A870153CF10E0CD
:1018500000E050CFFB01DC0102C001900D9241502D
:101860005040D8F70895FB01DC018D91019080195B
:101870000110D9F3990B0895FB01DC0101900D9241
:101880000020E1F7089510E0C2E6D0E004C0FE01B8
:101890000E94420A2196C336D107C9F7F894FFCFB8
:1018A0000000A3028000000000002E018E00BB009B
:1018B0007B01EC00CA00DE000000000056028E0032
:1018C00029035502B202C8023D0200000000710463
:1018D0008E0029038D004E6F2044617461005769AA
:1018E00072656C657373204E6F74696365002020A8
:1018F000202020426F617264202020202000576544
:0A1900006C636F6D6521000D0A0095
:00000001FF
